:100000000C942A000C9447000C9447000C94470071
:100010000C9447000C9447000C9447000C94470044
:100020000C9447000C9447000C9447000C94470034
:100030000C9447000C9447000C9447000C94470024
:100040000C9447000C9447000C9447000C94470014
:100050000C94470011241FBECFE5D8E0DEBFCDBF12
:1000600010E0A0E6B0E0E4E3FBE202C005900D92F0
:10007000A038B107D9F710E0A0E8B0E001C01D92A8
:10008000A138B107E1F70E9442110C9498150C9425
:100090000000EF92FF920F931F937B018C0120E0F1
:1000A00030E040E05FE40E94490388238CF0C801FF
:1000B000B70120E030E040E05FE40E94C1010E940F
:1000C000A9039B01AC01205030404040504806C07D
:1000D000C801B7010E94A9039B01AC01B901CA0183
:1000E0001F910F91FF90EF900895A0E0B0E0EBE733
:1000F000F0E00C94C012DC012B01FA019C919230CB
:1001000008F439C1EB018881823008F433C194309E
:1001100069F4843009F02FC111969C91119789815F
:10012000981709F428C1A3E6B0E025C1843009F48A
:1001300021C18230A9F4923009F01DC19A01AD01AC
:1001400088E0EA010990AE01E90109929E0181501F
:10015000C1F7E201898111969C918923818308C1AD
:10016000923009F407C112962D903C901397EB0141
:100170008A819B811496AD90BD90CD90DC901797AD
:10018000EC80FD800E811F819101281B390BB90184
:1001900037FF04C066277727621B730B6032710537
:1001A0000CF061C0121613066CF537014801062EDB
:1001B00004C096948794779467940A94D2F721E0C8
:1001C00030E040E050E004C0220F331F441F551FB1
:1001D0006A95D2F721503040404050402E213F21B7
:1001E00040235123211531054105510521F021E01E
:1001F00030E040E050E079018A01E628F72808293C
:1002000019293CC0232BD1F1260E371E350146019A
:10021000062E04C096948794779467940A94D2F734
:1002200021E030E040E050E004C0220F331F441FC3
:10023000551F6A95D2F721503040404050402A2146
:100240003B214C215D21211531054105510521F04E
:1002500021E030E040E050E059016A01A628B728CB
:10026000C828D9280BC0821593052CF01C01AA249C
:10027000BB24650103C0EE24FF24870111969C91E5
:10028000D20111968C91981709F445C0992339F041
:10029000A80197012A193B094C095D0906C0A6016E
:1002A00095012E193F09400B510B57FD08C01182D3
:1002B0003382228224833583468357831DC081E0A5
:1002C00081833382228288279927DC01821B930B4A
:1002D000A40BB50B84839583A683B7830DC0220F2F
:1002E000331F441F551F24833583468357838281E0
:1002F000938101979383828324813581468157813D
:10030000DA01C9010197A109B1098F5F9F4FAF4F72
:10031000BF4328F30BC0918333822282EA0CFB1C7B
:100320000C1D1D1DE482F5820683178383E0808304
:10033000248135814681578157FF1AC0C901AA27F8
:1003400097FDA095BA2F81709070A070B0705695EF
:10035000479537952795822B932BA42BB52B848318
:100360009583A683B7838281938101969383828349
:10037000DF0101C0D201CD01CDB7DEB7E2E10C94BF
:10038000DC12A0E2B0E0E7ECF1E00C94CC1269835F
:100390007A838B839C832D833E834F835887E9E048
:1003A000EE2EF12CEC0EFD1ECE010196B7010E943F
:1003B000D2048E010F5E1F4FCE010596B8010E9438
:1003C000D2048A8991E089278A8BC701B801AE01DE
:1003D000475E5F4F0E9475000E94FD03A096E6E015
:1003E0000C94E812A0E2B0E0E8EFF1E00C94CC123B
:1003F00069837A838B839C832D833E834F835887C5
:10040000F9E0EF2EF12CEC0EFD1ECE010196B701A6
:100410000E94D2048E010F5E1F4FCE010596B801D7
:100420000E94D204C701B801AE01475E5F4F0E942F
:1004300075000E94FD03A096E6E00C94E812A0E28D
:10044000B0E0E5E2F2E00C94C01269837A838B831A
:100450009C832D833E834F835887CE010196BE0136
:10046000675F7F4F0E94D204CE010596BE016F5E8A
:100470007F4F0E94D2049985923088F0898982301A
:10048000C8F0943019F4823051F404C0843029F457
:10049000923081F483E690E0C6C0923049F420E0C7
:1004A0009A858A89981321E02A87CE010996BBC0D4
:1004B000823049F420E09A858A89981321E02A8BBA
:1004C000CE014196B0C02D843E844F8458886D88FB
:1004D0007E888F88988CEE24FF248701AA24BB2471
:1004E000650140E050E060E070E0E0E0F0E0C10174
:1004F00081709070892BE9F0E60CF71C081D191D1E
:100500009A01AB012A0D3B1D4C1D5D1D80E090E062
:10051000A0E0B0E0E614F7040805190520F481E036
:1005200090E0A0E0B0E0BA01A901480F591F6A1F8E
:100530007B1FAA0CBB1CCC1CDD1C97FE08C081E0F5
:1005400090E0A0E0B0E0A82AB92ACA2ADB2A3196B6
:10055000E032F10549F0660C771C881C991C569412
:10056000479437942794C3CFFA85EA892B893C892D
:100570008B859C85280F391F2E5F3F4F17C0CA01FE
:1005800081709070892B61F016950795F794E79428
:1005900080E090E0A0E0B0E8E82AF92A0A2B1B2BC3
:1005A00076956795579547952F5F3F4F77FDE7CF36
:1005B0000CC0440F551F661F771F17FD4160EE0CDE
:1005C000FF1C001F111F21503040403090E05907A0
:1005D00090E0690790E4790760F32B8F3C8FDB0193
:1005E000CA018F779070A070B07080349105A1051A
:1005F000B10561F447FD0AC0E114F10401051105DC
:1006000029F0405C5F4F6F4F7F4F40781A8EFE1786
:1006100011F081E08A8F4D8F5E8F6F8F78A383E01A
:10062000898FCE0149960E94FD03A096E2E10C94C9
:10063000DC12A8E1B0E0EFE1F3E00C94CC126983A6
:100640007A838B839C832D833E834F83588789E0F5
:10065000E82EF12CEC0EFD1ECE010196B7010E9492
:10066000D2048E010F5E1F4FCE010596B8010E9485
:10067000D2048985823040F08989823028F0C70110
:10068000B8010E944A0501C08FEF6896E6E00C941D
:10069000E812A8E1B0E0EFE4F3E00C94CC12698337
:1006A0007A838B839C832D833E834F83588789E095
:1006B000E82EF12CEC0EFD1ECE010196B7010E9432
:1006C000D2048E010F5E1F4FCE010596B8010E9425
:1006D000D2048985823040F08989823028F0C701B0
:1006E000B8010E944A0501C08FEF6896E6E00C94BD
:1006F000E812A8E1B0E0EFE7F3E00C94CC126983D4
:100700007A838B839C832D833E834F83588789E034
:10071000E82EF12CEC0EFD1ECE010196B7010E94D1
:10072000D2048E010F5E1F4FCE010596B8010E94C4
:10073000D2048985823040F08989823028F0C7014F
:10074000B8010E944A0501C081E06896E6E00C9479
:10075000E812ACE0B0E0EFEAF3E00C94D012698369
:100760007A838B839C83CE010196BE016B5F7F4FA2
:100770000E94D2048D81823061F1823050F1843048
:1007800021F48E81882351F12EC02F81388537FDC9
:1007900020C06E812F3131051CF06623F9F023C093
:1007A0008EE190E0821B930B29853A854B855C8511
:1007B00004C056954795379527958A95D2F76623B5
:1007C000B1F050954095309521953F4F4F4F5F4F79
:1007D0000EC020E030E040E050E009C02FEF3FEFD6
:1007E0004FEF5FE704C020E030E040E050E8B9019F
:1007F000CA012C96E2E00C94EC12DF92EF92FF9289
:100800000F931F93FC01E480F58006811781D1804E
:100810008081823048F480E090E0A0E1B0E0E82AF6
:10082000F92A0A2B1B2BA5C0843009F49FC0823003
:1008300021F4EE24FF24870105C0E114F104010531
:10084000110519F4E0E0F0E096C0628173819FEF3A
:10085000623879070CF05BC022E83FEF261B370BAC
:100860002A3131052CF020E030E040E050E02AC091
:10087000B801A701022E04C0769567955795479554
:100880000A94D2F781E090E0A0E0B0E004C0880FC5
:10089000991FAA1FBB1F2A95D2F70197A109B10979
:1008A0008E219F21A023B1230097A105B10521F03E
:1008B00081E090E0A0E0B0E09A01AB01282B392B59
:1008C0004A2B5B2BDA01C9018F779070A070B07052
:1008D00080349105A105B10539F427FF09C0205CDA
:1008E0003F4F4F4F5F4F04C0215C3F4F4F4F5F4F13
:1008F000E0E0F0E02030A0E03A07A0E04A07A0E402
:100900005A0710F0E1E0F0E079018A0127C0603871
:10091000710564F5FB01E158FF4FD801C7018F77DE
:100920009070A070B07080349105A105B10539F4C4
:10093000E7FE0DC080E490E0A0E0B0E004C08FE3EB
:1009400090E0A0E0B0E0E80EF91E0A1F1B1F17FFA1
:1009500005C016950795F794E794319687E01695AC
:100960000795F794E7948A95D1F705C0EE24FF2404
:100970008701EFEFF0E06E2F679566276795902F60
:100980009F77D794DD24D7948E2F8695492F462BB9
:10099000582F5D29B701CA011F910F91FF90EF9069
:1009A000DF900895FC01DB01408151812281622F9B
:1009B0006F7770E0221F2227221F9381892F880FD3
:1009C000822B282F30E0991F9927991F11969C930D
:1009D000119721153105A9F54115510561057105DD
:1009E00011F482E037C082E89FEF13969C938E93B8
:1009F00012979A01AB0167E0220F331F441F551F66
:100A00006A95D1F783E08C930DC0220F331F441FEA
:100A1000551F12968D919C911397019713969C9355
:100A20008E931297203080E0380780E0480780E4FA
:100A3000580758F314962D933D934D935C93179755
:100A400008952F3F310579F4411551056105710570
:100A500019F484E08C93089564FF03C081E08C93C3
:100A600012C01C9210C02F57304013963C932E9307
:100A7000129783E08C9387E0440F551F661F771F02
:100A80008A95D1F7706414964D935D936D937C9322
:100A9000179708951F93DC01FB019C91923008F495
:100AA00047C08081823008F443C0943051F41196DD
:100AB0001C91843099F58181682F70E0611B710968
:100AC0003FC0843021F0923031F48230B9F181811D
:100AD000882389F12DC011961C9111978230F1F075
:100AE00081811817D9F412962D913C911397828128
:100AF00093818217930794F028173907BCF0149656
:100B00008D919D910D90BC91A02D248135814681C0
:100B10005781281739074A075B0718F4112341F05A
:100B20000AC082179307A407B50740F4112319F0F0
:100B300061E070E005C06FEF7FEF02C060E070E041
:100B4000CB011F910895DF93CF930F92CDB7DEB7FE
:100B50001982EAE3F0E08FEF8083E7E3F0E083E5DA
:100B60008083E4E3F0E08FEF8083E1E3F0E083E56E
:100B70008083EBE3F0E085E68083E8E3F0E085E660
:100B80008083E5E3F0E01082E2E3F0E085E6808335
:100B900081E0898389810F90CF91DF910895DF9360
:100BA000CF9300D000D00F92CDB7DEB78A836B838E
:100BB00019828A818430A8F58A81282F30E03D830C
:100BC0002C838C819D8181309105D1F02C813D81D8
:100BD000223031052CF48C819D81009761F01EC07C
:100BE0002C813D812230310581F08C819D818330C3
:100BF000910581F013C0EAE3F0E08B8180830EC0A1
:100C0000E7E3F0E08B81808309C0E4E3F0E08B81CF
:100C1000808304C0E1E3F0E08B81808381E08983FD
:100C200002C082E0898389810F900F900F900F900E
:100C30000F90CF91DF910895DF93CF9300D000D034
:100C40000F92CDB7DEB78A836B8319828A81843095
:100C5000A8F58A81282F30E03D832C838C819D81EB
:100C600081309105D1F02C813D81223031052CF469
:100C70008C819D81009761F01EC02C813D812230C6
:100C8000310581F08C819D818330910581F013C005
:100C9000EBE3F0E08B8180830EC0E8E3F0E08B8132
:100CA000808309C0E5E3F0E08B81808304C0E2E348
:100CB000F0E08B81808381E0898302C082E08983B8
:100CC00089810F900F900F900F900F90CF91DF912F
:100CD0000895DF93CF9300D000D0CDB7DEB78A83DD
:100CE00019828A81843008F041C08A81282F30E03F
:100CF0003C832B838B819C8181309105E9F02B8192
:100D00003C81223031052CF48B819C81009761F06D
:100D10002AC02B813C8122303105B1F08B819C812E
:100D200083309105C9F01FC0ABE3B0E0EBE3F0E026
:100D3000808180958C9317C0A8E3B0E0E8E3F0E0F1
:100D4000808180958C930FC0A5E3B0E0E5E3F0E0EF
:100D5000808180958C9307C0A2E3B0E0E2E3F0E0ED
:100D6000808180958C9381E0898302C082E08983B1
:100D700089810F900F900F900F90CF91DF91089580
:100D8000DF93CF9300D000D000D0CDB7DEB78A83F9
:100D90007C836B8319828B819C81009709F443C00B
:100DA0008A818430E8F58A81282F30E03E832D83C4
:100DB0008D819E8181309105E1F02D813E8122302F
:100DC00031052CF48D819E81009761F026C02D8124
:100DD0003E8122303105A1F08D819E8183309105C5
:100DE000B1F01BC0E9E3F0E08081EB81FC818083FE
:100DF00014C0E6E3F0E08081EB81FC8180830DC0CC
:100E0000E3E3F0E08081EB81FC81808306C0E0E3D6
:100E1000F0E08081EB81FC81808381E0898305C0E3
:100E200082E0898302C083E08983898126960FB698
:100E3000F894DEBF0FBECDBFCF91DF910895DF9351
:100E4000CF93CDB7DEB727970FB6F894DEBF0FBEAE
:100E5000CDBF8A836B835D834C8319828C819D8196
:100E6000009709F47EC08A81843008F077C08B81B6
:100E7000883008F073C08A81282F30E03F832E83AA
:100E80004E815F814130510559F18E819F818230C1
:100E9000910534F42E813F812115310569F05BC045
:100EA0004E815F814230510579F18E819F8183307F
:100EB000910509F43DC04FC0E9E3F0E08081282F9F
:100EC00030E08B81882F90E0A90102C055954795AD
:100ED0008A95E2F7CA018170EC81FD8180833BC075
:100EE000E6E3F0E08081282F30E08B81882F90E0CE
:100EF000A90102C0559547958A95E2F7CA0181700C
:100F0000EC81FD81808327C0E3E3F0E08081282F1E
:100F100030E08B81882F90E0A90102C0559547955C
:100F20008A95E2F7CA018170EC81FD81808313C04C
:100F3000E0E3F0E08081282F30E08B81882F90E083
:100F4000A90102C0559547958A95E2F7CA018170BB
:100F5000EC81FD81808381E0898305C082E0898303
:100F600002C083E08983898127960FB6F894DEBF9B
:100F70000FBECDBFCF91DF910895DF93CF9300D007
:100F800000D00F92CDB7DEB78A836B8319828A8136
:100F9000843008F077C08B81883008F073C081E01E
:100FA000898381E089838A81282F30E03D832C83E7
:100FB0008C819D818130910549F12C813D812230C8
:100FC00031052CF48C819D81009761F05DC02C81EE
:100FD0003D812230310571F18C819D8183309105F5
:100FE000E9F152C0ABE3B0E0EBE3F0E08081482FE1
:100FF0008B81282F30E081E090E0022E02C0880F24
:10100000991F0A94E2F784278C933EC0A8E3B0E0CE
:10101000E8E3F0E08081482F8B81282F30E081E0E9
:1010200090E0022E02C0880F991F0A94E2F78427ED
:101030008C932AC0A5E3B0E0E5E3F0E08081482F7F
:101040008B81282F30E081E090E0022E02C0880FD3
:10105000991F0A94E2F784278C9316C0A2E3B0E0AC
:10106000E2E3F0E08081482F8B81282F30E081E09F
:1010700090E0022E02C0880F991F0A94E2F784279D
:101080008C9302C082E0898389810F900F900F902A
:101090000F900F90CF91DF910895DF93CF9300D001
:1010A00000D000D0CDB7DEB78A836B834C83198222
:1010B0008A81843008F0D1C08B81883008F0CDC09F
:1010C0008C81823008F0C9C08A81282F30E03E83AD
:1010D0002D836D817E816130710509F441C08D8160
:1010E0009E818230910534F42D813E812115310598
:1010F00071F0B0C06D817E816230710509F459C014
:101100008D819E818330910509F47CC0A3C0AAE340
:10111000B0E0EAE3F0E08081482F8B81282F30E0B7
:1011200081E090E002C0880F991F2A95E2F7809530
:1011300084238C93AAE3B0E0EAE3F0E08081482FB7
:101140008C81282F30E08B81882F90E0B90102C07C
:10115000660F771F8A95E2F7CB01842B8C937AC0B8
:10116000A7E3B0E0E7E3F0E08081482F8B81282FF0
:1011700030E081E090E002C0880F991F2A95E2F7E5
:10118000809584238C93A7E3B0E0E7E3F0E08081CF
:10119000482F8C81282F30E08B81882F90E0B90177
:1011A00002C0660F771F8A95E2F7CB01842B8C93E0
:1011B00051C0A4E3B0E0E4E3F0E08081482F8B81EC
:1011C000282F30E081E090E002C0880F991F2A9517
:1011D000E2F7809584238C93A4E3B0E0E4E3F0E0AD
:1011E0008081482F8C81282F30E08B81882F90E0E0
:1011F000B90102C0660F771F8A95E2F7CB01842BF5
:101200008C9328C0A1E3B0E0E1E3F0E08081482FB7
:101210008B81282F30E081E090E002C0880F991F79
:101220002A95E2F7809584238C93A1E3B0E0E1E373
:10123000F0E08081482F8C81282F30E08B81882F2F
:1012400090E0B90102C0660F771F8A95E2F7CB01E3
:10125000842B8C9381E0898302C082E08983898119
:1012600026960FB6F894DEBF0FBECDBFCF91DF91AB
:101270000895DF93CF9300D000D000D0CDB7DEB774
:101280008A836B834C8319828A81843008F0D1C0B1
:101290008B81883008F0CDC08C81823008F0C9C0C5
:1012A0008A81282F30E03E832D836D817E816130DD
:1012B000710509F441C08D819E818230910534F41D
:1012C0002D813E812115310571F0B0C06D817E8187
:1012D0006230710509F459C08D819E81833091057A
:1012E00009F47CC0A3C0ABE3B0E0EBE3F0E08081A5
:1012F000482F8B81282F30E081E090E002C0880FDA
:10130000991F2A95E2F7809584238C93ABE3B0E094
:10131000EBE3F0E08081482F8C81282F30E08B8137
:10132000882F90E0B90102C0660F771F8A95E2F717
:10133000CB01842B8C937AC0A8E3B0E0E8E3F0E023
:101340008081482F8B81282F30E081E090E002C01F
:10135000880F991F2A95E2F7809584238C93A8E340
:10136000B0E0E8E3F0E08081482F8C81282F30E066
:101370008B81882F90E0B90102C0660F771F8A9594
:10138000E2F7CB01842B8C9351C0A5E3B0E0E5E3F9
:10139000F0E08081482F8B81282F30E081E090E0C1
:1013A00002C0880F991F2A95E2F7809584238C93B9
:1013B000A5E3B0E0E5E3F0E08081482F8C81282FA1
:1013C00030E08B81882F90E0B90102C0660F771F53
:1013D0008A95E2F7CB01842B8C9328C0A2E3B0E07E
:1013E000E2E3F0E08081482F8B81282F30E081E01C
:1013F00090E002C0880F991F2A95E2F78095842318
:101400008C93A2E3B0E0E2E3F0E08081482F8C818E
:10141000282F30E08B81882F90E0B90102C0660F41
:10142000771F8A95E2F7CB01842B8C9381E0898327
:1014300002C082E08983898126960FB6F894DEBFC8
:101440000FBECDBFCF91DF910895DF93CF93CDB77E
:10145000DEB783E064E040E00E944D0883E065E091
:1014600040E00E944D0883E066E040E00E944D08A5
:1014700083E067E040E00E944D0883E064E041E0E3
:101480000E94390983E065E041E00E94390983E068
:1014900066E041E00E94390983E067E041E00E9494
:1014A000390983E060E041E00E944D0883E061E09B
:1014B00041E00E944D0883E062E041E00E944D0857
:1014C00083E063E041E00E944D0883E060E041E09A
:1014D0000E94390983E061E041E00E94390983E01C
:1014E00062E041E00E94390983E063E041E00E944C
:1014F0003909CF91DF910895DF93CF93CDB7DEB750
:1015000029970FB6F894DEBF0FBECDBF8FEF8B8348
:1015100084E08D8385E08E8386E08F8387E08887F3
:101520001A8262C08A81882F90E0FC01E559FF4F42
:10153000908183E0692F40E00E943909198241C0FF
:101540008981282F30E0CE010596FC01E20FF31FC0
:1015500090819E012C5F3F4F83E0692FA9010E947B
:101560001F078C81882351F58981482F50E08A819B
:10157000282F30E0CA01880F991F880F991F820F0A
:10158000931FFC01E159FF4F80818B8311C089813A
:10159000282F30E0CE010596FC01E20FF31F908169
:1015A0009E012C5F3F4F83E0692FA9010E941F0716
:1015B0008C81882361F38B8189871CC089818F5F2F
:1015C00089838981843008F4BBCF8A81882F90E099
:1015D000FC01E559FF4F908183E0692F41E00E94B3
:1015E00039098A818F5F8A838A81843008F49ACF8F
:1015F0008B818987898529960FB6F894DEBF0FBE47
:10160000CDBFCF91DF9108950F931F93DF93CF93B9
:10161000CDB7DEB7C854D0400FB6F894DEBF0FBECA
:10162000CDBFFE01E95BFF4F108280E060E041E04A
:101630000E944D08FE01E95BFF4F8083FE01E95BDC
:10164000FF4F8081813041F0FE01E95BFF4F8081D7
:1016500029968FAF299793C380E061E041E00E9413
:101660004D08FE01E95BFF4F8083FE01E95BFF4F00
:101670008081813041F0FE01E95BFF4F8081299636
:101680008FAF29977CC380E062E041E00E944D0863
:10169000FE01E95BFF4F8083FE01E95BFF4F808124
:1016A000813041F0FE01E95BFF4F808129968FAFC9
:1016B000299765C381E067E041E00E944D08FE0183
:1016C000E95BFF4F8083FE01E95BFF4F8081813042
:1016D00041F0FE01E95BFF4F808129968FAF29978A
:1016E0004EC381E066E041E00E944D08FE01E95BE7
:1016F000FF4F8083FE01E95BFF4F8081813041F025
:10170000FE01E95BFF4F808129968FAF299737C390
:1017100081E065E041E00E944D08FE01E95BFF4F7A
:101720008083FE01E95BFF4F8081813041F0FE0143
:10173000E95BFF4F808129968FAF299720C381E015
:1017400064E041E00E944D08FE01E95BFF4F8083A9
:10175000FE01E95BFF4F8081813041F0FE01E95BD2
:10176000FF4F808129968FAF299709C3FE01ED5B5A
:10177000FF4F80E090E0ACE0B2E480839183A283ED
:10178000B3838E01015C1F4FFE01ED5BFF4F608153
:1017900071818281938120E030E04AE753E40E9426
:1017A0001F02DC01CB01F80180839183A283B38304
:1017B000FE01FF96608171818281938120E030E09B
:1017C00040E85FE30E94790388232CF481E090E0F5
:1017D0009EAF8DAF46C0FE01FF9660817181828110
:1017E000938120E03FEF4FE757E40E94190318165A
:1017F00064F5FE01ED5BFF4F608171818281938111
:1018000020E030E040E251E40E941F02DC01CB0105
:10181000BC01CD010E944900DC01CB019EAF8DAF20
:101820000FC089E190E09CAF8BAF8BAD9CAD019771
:10183000F1F79CAF8BAF8DAD9EAD01979EAF8DAF95
:101840008DAD9EAD009769F716C0FE01FF966081D1
:101850007181828193810E944900DC01CB019EAF9E
:101860008DAF8DAD9EAD9AAF89AF89AD9AAD019721
:10187000F1F79AAF89AF81E063E041E00E944D0843
:10188000FE01E95BFF4F8083FE01E95BFF4F808132
:10189000813041F0FE01E95BFF4F808129968FAFD7
:1018A00029976DC281E062E041E00E944D08FE018F
:1018B000E95BFF4F8083FE01E95BFF4F8081813050
:1018C00041F0FE01E95BFF4F808129968FAF299798
:1018D00056C281E061E041E00E944D08FE01E95BF3
:1018E000FF4F8083FE01E95BFF4F8081813041F033
:1018F000FE01E95BFF4F808129968FAF29973FC298
:1019000081E060E041E00E944D08FE01E95BFF4F8D
:101910008083FE01E95BFF4F8081813041F0FE0151
:10192000E95BFF4F808129968FAF299728C288E312
:101930000E946710FE01E95BFF4F8083FE01E95BB7
:10194000FF4F8081813041F0FE01E95BFF4F8081D4
:1019500029968FAF299713C280E090E0A0E8BFE3FB
:101960008DAB9EABAFABB8AF6DA97EA98FA998AD7B
:1019700020E030E04AE753E40E941F02DC01CB0183
:1019800089AB9AABABABBCAB69A97AA98BA99CA973
:1019900020E030E040E85FE30E94790388232CF4E4
:1019A00081E090E098AB8FA73FC069A97AA98BA985
:1019B0009CA920E03FEF4FE757E40E941903181657
:1019C0004CF56DA97EA98FA998AD20E030E040E2EA
:1019D00051E40E941F02DC01CB01BC01CD010E9439
:1019E0004900DC01CB0198AB8FA70FC089E190E0E3
:1019F0009EA78DA78DA59EA50197F1F79EA78DA700
:101A00008FA598A9019798AB8FA78FA598A9009744
:101A100069F714C069A97AA98BA99CA90E944900F9
:101A2000DC01CB0198AB8FA78FA598A99CA78BA7AA
:101A30008BA59CA50197F1F79CA78BA78FE00E942F
:101A40006710FE01E95BFF4F8083FE01E95BFF4FFA
:101A50008081813041F0FE01E95BFF4F8081299652
:101A60008FAF29978CC180E090E0A0E8BFE38FA3FF
:101A700098A7A9A7BAA76FA178A589A59AA520E0DC
:101A800030E04AE753E40E941F02DC01CB018BA344
:101A90009CA3ADA3BEA36BA17CA18DA19EA120E0C0
:101AA00030E040E85FE30E94790388232CF481E072
:101AB00090E09AA389A33FC06BA17CA18DA19EA1B8
:101AC00020E03FEF4FE757E40E94190318164CF54A
:101AD0006FA178A589A59AA520E030E040E251E405
:101AE0000E941F02DC01CB01BC01CD010E94490014
:101AF000DC01CB019AA389A30FC089E190E098A3F0
:101B00008F8F8F8D98A10197F1F798A38F8F89A15F
:101B10009AA101979AA389A389A19AA1009769F72D
:101B200014C06BA17CA18DA19EA10E944900DC0183
:101B3000CB019AA389A389A19AA19E8F8D8F8D8DA8
:101B40009E8D0197F1F79E8F8D8F81E00E94671027
:101B5000FE01E95BFF4F8083FE01E95BFF4F80815F
:101B6000813041F0FE01E95BFF4F808129968FAF04
:101B7000299705C180E090E0A0E0B0E4898F9A8FBA
:101B8000AB8FBC8F698D7A8D8B8D9C8D20E030E082
:101B90004AE753E40E941F02DC01CB018D8B9E8B30
:101BA000AF8BB88F6D897E898F89988D20E030E06A
:101BB00040E85FE30E94790388232CF481E090E001
:101BC0009C8B8B8B3FC06D897E898F89988D20E09F
:101BD0003FEF4FE757E40E94190318164CF5698D43
:101BE0007A8D8B8D9C8D20E030E040E251E40E94A4
:101BF0001F02DC01CB01BC01CD010E944900DC01C8
:101C0000CB019C8B8B8B0FC089E190E09A8B898BE9
:101C100089899A890197F1F79A8B898B8B899C899D
:101C200001979C8B8B8B8B899C89009769F714C0DB
:101C30006D897E898F89988D0E944900DC01CB01D6
:101C40009C8B8B8B8B899C89988B8F878F859889B0
:101C50000197F1F7988B8F8786E00E946710FE014D
:101C6000E95BFF4F8083FE01E95BFF4F808181309C
:101C700041F0FE01E95BFF4F808129968FAF2997E4
:101C80007EC080E090E0A0E8BFE38B879C87AD87B3
:101C9000BE876B857C858D859E8520E030E04AE798
:101CA00053E40E941F02DC01CB018F839887A98730
:101CB000BA876F81788589859A8520E030E040E891
:101CC0005FE30E94790388232CF481E090E09E83F7
:101CD0008D833FC06F81788589859A8520E03FEFAD
:101CE0004FE757E40E94190318164CF56B857C8565
:101CF0008D859E8520E030E040E251E40E941F0285
:101D0000DC01CB01BC01CD010E944900DC01CB010B
:101D10009E838D830FC089E190E09C838B838B81B0
:101D20009C810197F1F79C838B838D819E81019724
:101D30009E838D838D819E81009769F714C06F818A
:101D4000788589859A850E944900DC01CB019E83B4
:101D50008D838D819E819A83898389819A81019760
:101D6000F1F79A838983FE01E95BFF4F81E080836D
:101D7000FE01E95BFF4F808129968FAF2997299655
:101D80008FAD2997C85BDF4F0FB6F894DEBF0FBE4B
:101D9000CDBFCF91DF911F910F910895DF93CF9326
:101DA00000D00F92CDB7DEB78A8319820E94BF1090
:101DB00080E060E041E00E943909898389818130B7
:101DC00019F089818B830EC08A810E94220F89833A
:101DD0008981813019F089818B8304C081E08983F6
:101DE00089818B838B810F900F900F90CF91DF9122
:101DF0000895DF93CF9300D00F92CDB7DEB78A83DB
:101E0000198280E060E040E00E943909898389817D
:101E1000813019F089818B830EC08A810E94220F44
:101E200089838981813019F089818B8304C081E0A5
:101E3000898389818B838B810F900F900F90CF9135
:101E4000DF910895DF93CF9300D00F92CDB7DEB727
:101E50008A83198280E061E040E00E943909898329
:101E60008981813019F089818B839BC080E062E099
:101E700040E00E94390989838981813019F0898184
:101E80008B838FC08A81982F991F9927991F81E092
:101E900067E0492F0E94390989838981813019F0CF
:101EA00089818B837EC08A81829586958695837091
:101EB000982F917081E066E0492F0E94390989834B
:101EC0008981813019F089818B836BC08A818295E9
:101ED00086958770982F917081E065E0492F0E9468
:101EE000390989838981813019F089818B8359C0AF
:101EF0008A8182958F70982F917081E064E0492FDC
:101F00000E94390989838981813019F089818B8305
:101F100048C08A81869586958695982F917081E034
:101F200063E0492F0E94390989838981813019F042
:101F300089818B8336C08A8186958695982F91708A
:101F400081E062E0492F0E943909898389818130CB
:101F500019F089818B8325C08A818695982F91708D
:101F600081E061E0492F0E943909898389818130AC
:101F700019F089818B8315C08A81982F917081E037
:101F800060E0492F0E94390989838981813019F0E5
:101F900089818B8306C00E94D80F81E08983898163
:101FA0008B838B810F900F900F90CF91DF910895CD
:101FB000DF93CF93CDB7DEB72E970FB6F894DEBF81
:101FC0000FBECDBF80E062E041E00E94390980E0B1
:101FD00090E0A0E2B1E48B879C87AD87BE876B85DC
:101FE0007C858D859E8520E030E04AE753E40E94A1
:101FF0001F02DC01CB018F839887A987BA876F8185
:10200000788589859A8520E030E040E85FE30E948A
:10201000790388232CF481E090E09E838D833FC078
:102020006F81788589859A8520E03FEF4FE757E4F7
:102030000E94190318164CF56B857C858D859E854D
:1020400020E030E040E251E40E941F02DC01CB01BD
:10205000BC01CD010E944900DC01CB019E838D8330
:102060000FC089E190E09C838B838B819C810197D9
:10207000F1F79C838B838D819E8101979E838D8355
:102080008D819E81009769F714C06F81788589855D
:102090009A850E944900DC01CB019E838D838D814E
:1020A0009E819A83898389819A810197F1F79A8326
:1020B000898380E062E040E00E9439092E960FB6E5
:1020C000F894DEBF0FBECDBFCF91DF910895DF93AF
:1020D000CF9300D00F92CDB7DEB78A83198280E00C
:1020E00060E040E00E94390989838981813019F0DC
:1020F00089818B830EC08A810E94220F8983898106
:10210000813019F089818B8304C081E089838981C2
:102110008B838B810F900F900F90CF91DF9108955B
:10212000DF93CF9300D00F92CDB7DEB78A836B8356
:1021300019828B818031E0F48A81813059F481E009
:1021400089838B8180580E94671089838B8180935B
:1021500080000EC08A81823059F481E089838B81AE
:1021600080540E94671089838B81805F80938000F8
:1021700089810F900F900F90CF91DF910895DF9399
:10218000CF93CDB7DEB780918000803151F482E0EB
:1021900060E00E949010809180008F5F80938000AB
:1021A00013C080918000803251F481E00E9467105A
:1021B00081E060E00E9490101092800005C0809144
:1021C00080008F5F80938000CF91DF910895DF932F
:1021D000CF93CDB7DEB781E00E94671010928000E8
:1021E000CF91DF910895DF93CF93CDB7DEB764979A
:1021F0000FB6F894DEBF0FBECDBF9C8B8B8B1A82BF
:1022000000D000D000D0EDB7FEB73196CE010396D6
:102210009183808380E690E0938382838B899C897D
:10222000958384830E94F7128DB79EB706960FB6EA
:10223000F8949EBF0FBE8DBF19820FC08981282FD1
:1022400030E0CE010396FC01E20FF31F80810E9473
:10225000CE0E8A8389818F5F89838981282F30E020
:10226000CE010396FC01E20FF31F8081882331F732
:102270008A8164960FB6F894DEBF0FBECDBFCF91B2
:10228000DF910895DF93CF93CDB7DEB763970FB695
:10229000F894DEBF0FBECDBF198A188A1B8A1A8A2E
:1022A0000E94A3050E94040B0E94250A0E947C0A3A
:1022B0008A8303C00E947C0A8A838A818F3FD1F37C
:1022C00019821AC08981282F30E0CE014096FC0186
:1022D000E20FF31F8A8180838A810E94CE0E89815A
:1022E0008F5F89830E947C0A8A8303C00E947C0AD4
:1022F0008A838A818F3FD1F38A818A3261F08A8111
:102300008F3249F08A818B3231F08A818D3219F017
:102310008A818D33B9F68A818F878A810E94CE0E99
:102320000E947C0A8A8303C00E947C0A8A838A8175
:102330008F3FD1F319821AC08981282F30E0CE0156
:102340004296FC01E20FF31F8A8180838A810E94FA
:10235000CE0E89818F5F89830E947C0A8A8303C0A5
:102360000E947C0A8A838A818F3FD1F38A818A32D4
:1023700061F08A818F3249F08A818B3231F08A8113
:102380008D3219F08A818D33B9F6CE0140960E94C4
:102390007012882F90E0A0E0B0E08B879C87AD871B
:1023A000BE87CE0142960E947012882F90E0A0E076
:1023B000B0E08F839887A987BA870E94E7108B8542
:1023C0009C850E94F3108F850E94CE0E8F81988588
:1023D0000E94F3108DE30E94CE0E8B859F81692FA2
:1023E0004F850E940012882F90E0A0E0B0E08B8320
:1023F0009C83AD83BE838B819C810E94F31056CF5A
:10240000DF93CF9300D000D000D0CDB7DEB7898363
:102410006A834B838B81282F30E03E832D838D810F
:102420009E818B329105B1F02D813E812C32310598
:1024300034F48D819E818A329105C1F025C02D81B1
:102440003E812D32310561F08D819E818F32910563
:10245000A1F01AC099818A81292F280F2C8315C0D9
:1024600099818A81392F381B3C830FC099818A81D9
:10247000989F802D11248C8308C089819A81692FAF
:102480000E94B4128C8301C01C828C8126960FB6E8
:10249000F894DEBF0FBECDBFCF91DF910895DF93DB
:1024A000CF9300D000D0CDB7DEB78B836C8381E0B3
:1024B0008A83198209C09A818B81989F802D11246B
:1024C0008A8389818F5F898399818C81981798F39A
:1024D0008A810F900F900F900F90CF91DF91089508
:1024E0000F931F93DF93CF9300D000D00F92CDB7FF
:1024F000DEB79D838C8381E08B831A82198226C08C
:102500008981282F30E08C819D81FC01E20FF31F2F
:102510008081882F90E08C01005310408AE06B810D
:102520000E944F12882F90E09C01029FC001039FE0
:10253000900D129F900D1124982F8A81890F8A8304
:102540008B8181508B8389818F5F898389818230E0
:10255000B8F28A810F900F900F900F900F90CF914B
:10256000DF911F910F910895991B79E004C0991F85
:10257000961708F0961B881F7A95C9F780950895DD
:102580002F923F924F925F926F927F928F929F9283
:10259000AF92BF92CF92DF92EF92FF920F931F9371
:1025A000CF93DF93CDB7DEB7CA1BDB0B0FB6F89422
:1025B000DEBF0FBECDBF09942A88398848885F8462
:1025C0006E847D848C849B84AA84B984C884DF80D3
:1025D000EE80FD800C811B81AA81B981CE0FD11DB7
:1025E0000FB6F894DEBF0FBECDBFED010895AEE08B
:1025F000B0E0EDEFF2E10C94CE120D891E8986E079
:102600008C831A8309838FEF9FE79E838D839E01BE
:10261000275E3F4FCE0101966F89788DA9010E94F8
:102620001B132F813885020F131FF80110822E967D
:10263000E4E00C94EA12ABE0B0E0E1E2F3E10C94E8
:10264000C0123C012B015A01FC01178216828381C2
:1026500081FD03C06FEF7FEFC6C19AE0892E1E0196
:102660000894211C311CF3012381F20123FD859183
:1026700023FF81912F01882309F4B2C1853239F4F7
:1026800023FD859123FF81912F01853229F490E06C
:10269000B3010E940E15E7CF982FFF24EE24992452
:1026A000FFE1FF15D0F09B3269F09C3228F49032A4
:1026B00059F0933291F40EC09D3249F0903369F491
:1026C00041E024C052E0F52A84E0F82A28C098E0CE
:1026D000F92A25C0E0E1FE2A22C0F7FC29C0892F93
:1026E00080538A3070F4F6FE05C0989C902C11241B
:1026F000980E15C0E89CE02C1124E80EF0E2FF2AA9
:102700000EC09E3229F4F6FC6BC140E4F42A07C0E7
:102710009C3619F450E8F52A02C0983649F4F201C3
:1027200023FD959123FF91912F01992309F0B8CFB3
:10273000892F8554833018F08052833038F444E078
:1027400050E0A40EB51E5FE359830FC0933631F0FD
:10275000933779F0933509F056C020C0F501808198
:10276000898342E050E0A40EB51E610101E010E053
:1027700012C0F501C080D180F6FC03C06FEF7FEF7F
:1027800002C0692D70E042E050E0A40EB51EC60103
:102790000E9403158C015FE7F52214C0F501C0808B
:1027A000D180F6FC03C06FEF7FEF02C0692D70E0AF
:1027B00042E050E0A40EB51EC6010E94F8148C0140
:1027C00050E8F52AF3FE07C01AC080E290E0B3019A
:1027D0000E940E15EA948E2D90E008171907A8F3B1
:1027E0000EC0F601F7FC8591F7FE81916F0190E034
:1027F000B3010E940E15E110EA940150104001153A
:10280000110579F7EAC0943611F0993669F5F7FEAB
:1028100008C0F501208131814281538184E090E03C
:102820000AC0F501808191819C01442737FD4095C4
:10283000542F82E090E0A80EB91E9FE6F92257FFC0
:1028400009C050954095309521953F4F4F4F5F4FB0
:10285000E0E8FE2ACA01B901A1012AE030E00E94A5
:102860003A15D82ED21840C0953729F41F2D1F7E57
:102870002AE030E01DC01F2D197F9F3661F0903790
:1028800020F4983509F0ACC00FC0903739F0983774
:1028900009F0A6C004C028E030E00AC0106114FDB1
:1028A000146020E130E004C014FD166020E132E045
:1028B00017FF08C0F501608171818281938144E036
:1028C00050E008C0F50180819181BC0180E090E07A
:1028D00042E050E0A40EB51EA1010E943A15D82E88
:1028E000D2188FE7F82EF122F6FE0BC05EEFF5222C
:1028F000D91438F4F4FE07C0F2FC05C08FEEF822BC
:1029000002C01D2D01C0192DF4FE0DC0FE01ED0DFC
:10291000F11D8081803319F499EEF92208C01F5F00
:10292000F2FE05C003C08F2D867809F01F5F0F2DC2
:10293000F3FC14C0F0FE0FC01E1510F09D2C0BC050
:102940009D2C9E0C911A1E2D06C080E290E0B301D2
:102950000E940E151F5F1E15C0F304C01E1510F453
:10296000E11A01C0EE2404FF0FC080E390E0B30140
:102970000E940E1502FF1DC001FD03C088E790E014
:102980000EC088E590E00BC0802F867891F001FFA3
:1029900002C08BE201C080E2F7FC8DE290E0B3015F
:1029A0000E940E1506C080E390E0B3010E940E1550
:1029B0009A94D914C0F3DA94F101ED0DF11D8081E0
:1029C00090E0B3010E940E15DD20A9F706C080E259
:1029D00090E0B3010E940E15EA94EE20C1F743CEB9
:1029E000F30166817781CB012B96E2E10C94DC1236
:1029F000FC010590615070400110D8F780959095CA
:102A00008E0F9F1F0895FC016150704001900110CE
:102A1000D8F7809590958E0F9F1F08950F931F9361
:102A2000CF93DF938C01EB018B8181FF1BC082FF71
:102A30000DC02E813F818C819D812817390764F458
:102A4000E881F9810193F983E88306C0E885F98577
:102A5000802F0995892B31F48E819F8101969F8368
:102A60008E8302C00FEF1FEFC801DF91CF911F913E
:102A70000F910895FA01AA27283051F1203181F1F0
:102A8000E8946F936E7F6E5F7F4F8F4F9F4FAF4F76
:102A9000B1E03ED0B4E03CD0670F781F891F9A1F89
:102AA000A11D680F791F8A1F911DA11D6A0F711D3D
:102AB000811D911DA11D20D009F468943F912AE049
:102AC000269F11243019305D3193DEF6CF01089531
:102AD000462F4770405D4193B3E00FD0C9F7F6CF62
:102AE000462F4F70405D4A3318F0495D31FD40522A
:102AF000419302D0A9F7EACFB4E0A69597958795C0
:102B000077956795BA95C9F700976105710508959E
:102B10009B01AC010A2E069457954795379527954A
:102B2000BA95C9F7620F731F841F951FA01D0895E2
:042B3000F894FFCF47
:102B340025640000000000000000000001020337CB
:102B440038392F3435362A3132332D3F303D2B007E
:00000001FF
